:10093A00003F0006005B004F0066006D007D000767
:10094A00007F006F0077007F0039003F0079007157
:0B098B00010D0102100000020E000030
:0D09710075D90075E24075B69075A9032296
:10095A0075E10175E240759810758920758E0875E4
:07096A008D30D28ED29922DC
:10090A008B088A09890A8C0B8D0C530C0F530B0028
:10091A00E50C25E0FFE50B33FEAB08AA09A90A8F0F
:10092A00828E831208D2FFAEF0C374FF9FF5A02215
:0D097E00309805AF997E00227EFF7FFF229A
:10088C0012097112095A20870E3087FD0511E511E6
:10089C0070020510750D0120860E3086FDE51115D0
:1008AC001170021510750D01E50D6010750D007BB2
:1008BC00FF7A09793AAD11AC1012090A12097E8E31
:0608CC000E8F0F80C12217
:03000000020800F3
:0C080000787FE4F6D8FD758111020847EE
:1008D200BB0110E58229F582E5833AF583E0F5F064
:1008E200A3E0225009E92582F886F008E622BBFE41
:1008F2000AE92582F8E2F5F008E222E5832AF58387
:08090200E993F5F0A3E993224B
:10080C0002088CE493A3F8E493A34003F68001F26E
:10081C0008DFF48029E493A3F85407240CC8C333ED
:10082C00C4540F4420C8834004F456800146F6DFBC
:10083C00E4800B010204081020408090098BE47EB8
:10084C00019360BCA3FF543F30E509541FFEE493B1
:10085C00A360010ECF54C025E060A840B8E493A378
:10086C00FAE493A3F8E493A3C8C582C8CAC583CAA3
:10087C00F0A3C8C582C8CAC583CADFE9DEE780BE5B
:010996000060
:00000001FF
